{
  "contractName": "DeployToken",
  "abi": [
    {
      "anonymous": false,
      "inputs": [
        {
          "indexed": false,
          "name": "tokenAddress",
          "type": "address"
        },
        {
          "indexed": false,
          "name": "sender",
          "type": "address"
        },
        {
          "indexed": false,
          "name": "name",
          "type": "string"
        },
        {
          "indexed": false,
          "name": "symbol",
          "type": "string"
        },
        {
          "indexed": false,
          "name": "decimals",
          "type": "uint8"
        },
        {
          "indexed": false,
          "name": "initialSupply",
          "type": "uint256"
        }
      ],
      "name": "SendToken",
      "type": "event"
    },
    {
      "constant": false,
      "inputs": [
        {
          "name": "name",
          "type": "string"
        },
        {
          "name": "symbol",
          "type": "string"
        },
        {
          "name": "decimals",
          "type": "uint8"
        },
        {
          "name": "initialSupply",
          "type": "uint256"
        }
      ],
      "name": "deployToken",
      "outputs": [],
      "payable": false,
      "stateMutability": "nonpayable",
      "type": "function"
    },
    {
      "constant": true,
      "inputs": [],
      "name": "showTokenAddress",
      "outputs": [
        {
          "name": "",
          "type": "address"
        },
        {
          "name": "",
          "type": "string"
        },
        {
          "name": "",
          "type": "string"
        },
        {
          "name": "",
          "type": "uint8"
        },
        {
          "name": "",
          "type": "uint256"
        }
      ],
      "payable": false,
      "stateMutability": "view",
      "type": "function"
    }
  ],
  "bytecode": "0x608060405234801561001057600080fd5b50612e35806100206000396000f3fe6080604052600436106200004f576000357c0100000000000000000000000000000000000000000000000000000000900463ffffffff168063842594b01462000054578063b7d0204414620001a0575b600080fd5b3480156200006157600080fd5b506200006c62000320565b604051808673ffffffffffffffffffffffffffffffffffffffff1673ffffffffffffffffffffffffffffffffffffffff16815260200180602001806020018560ff1660ff168152602001848152602001838103835287818151815260200191508051906020019080838360005b83811015620000f6578082015181840152602081019050620000d9565b50505050905090810190601f168015620001245780820380516001836020036101000a031916815260200191505b50838103825286818151815260200191508051906020019080838360005b838110156200015f57808201518184015260208101905062000142565b50505050905090810190601f1680156200018d5780820380516001836020036101000a031916815260200191505b5097505050505050505060405180910390f35b348015620001ad57600080fd5b506200031e60048036036080811015620001c657600080fd5b8101908080359060200190640100000000811115620001e457600080fd5b820183602082011115620001f757600080fd5b803590602001918460018302840111640100000000831117156200021a57600080fd5b91908080601f016020809104026020016040519081016040528093929190818152602001838380828437600081840152601f19601f820116905080830192505050505050509192919290803590602001906401000000008111156200027e57600080fd5b8201836020820111156200029157600080fd5b80359060200191846001830284011164010000000083111715620002b457600080fd5b91908080601f016020809104026020016040519081016040528093929190818152602001838380828437600081840152601f19601f820116905080830192505050505050509192919290803560ff16906020019092919080359060200190929190505050620005f3565b005b6000606080600080600260003373ffffffffffffffffffffffffffffffffffffffff1673ffffffffffffffffffffffffffffffffffffffff16815260200190815260200160002060000160009054906101000a900473ffffffffffffffffffffffffffffffffffffffff16600260003373ffffffffffffffffffffffffffffffffffffffff1673ffffffffffffffffffffffffffffffffffffffff168152602001908152602001600020600101600260003373ffffffffffffffffffffffffffffffffffffffff1673ffffffffffffffffffffffffffffffffffffffff168152602001908152602001600020600201600260003373ffffffffffffffffffffffffffffffffffffffff1673ffffffffffffffffffffffffffffffffffffffff16815260200190815260200160002060030160009054906101000a900460ff16600260003373ffffffffffffffffffffffffffffffffffffffff1673ffffffffffffffffffffffffffffffffffffffff16815260200190815260200160002060040154838054600181600116156101000203166002900480601f0160208091040260200160405190810160405280929190818152602001828054600181600116156101000203166002900480156200053b5780601f106200050f576101008083540402835291602001916200053b565b820191906000526020600020905b8154815290600101906020018083116200051d57829003601f168201915b50505050509350828054600181600116156101000203166002900480601f016020809104026020016040519081016040528092919081815260200182805460018160011615610100020316600290048015620005db5780601f10620005af57610100808354040283529160200191620005db565b820191906000526020600020905b815481529060010190602001808311620005bd57829003601f168201915b50505050509250945094509450945094509091929394565b83838383336200060262000d0a565b8080602001806020018660ff1660ff1681526020018581526020018473ffffffffffffffffffffffffffffffffffffffff1673ffffffffffffffffffffffffffffffffffffffff168152602001838103835288818151815260200191508051906020019080838360005b83811015620006895780820151818401526020810190506200066c565b50505050905090810190601f168015620006b75780820380516001836020036101000a031916815260200191505b50838103825287818151815260200191508051906020019080838360005b83811015620006f2578082015181840152602081019050620006d5565b50505050905090810190601f168015620007205780820380516001836020036101000a031916815260200191505b50975050505050505050604051809103906000f08015801562000747573d6000803e3d6000fd5b506000806101000a81548173ffffffffffffffffffffffffffffffffffffffff021916908373ffffffffffffffffffffffffffffffffffffffff1602179055506000809054906101000a900473ffffffffffffffffffffffffffffffffffffffff1673ffffffffffffffffffffffffffffffffffffffff1663c8e769826040518163ffffffff167c010000000000000000000000000000000000000000000000000000000002815260040160206040518083038186803b1580156200080b57600080fd5b505afa15801562000820573d6000803e3d6000fd5b505050506040513d60208110156200083757600080fd5b8101908080519060200190929190505050600160006101000a81548173ffffffffffffffffffffffffffffffffffffffff021916908373ffffffffffffffffffffffffffffffffffffffff160217905550600160009054906101000a900473ffffffffffffffffffffffffffffffffffffffff16600260003373ffffffffffffffffffffffffffffffffffffffff1673ffffffffffffffffffffffffffffffffffffffff16815260200190815260200160002060000160006101000a81548173ffffffffffffffffffffffffffffffffffffffff021916908373ffffffffffffffffffffffffffffffffffffffff16021790555083600260003373ffffffffffffffffffffffffffffffffffffffff1673ffffffffffffffffffffffffffffffffffffffff16815260200190815260200160002060010190805190602001906200098392919062000d1b565b5082600260003373ffffffffffffffffffffffffffffffffffffffff1673ffffffffffffffffffffffffffffffffffffffff1681526020019081526020016000206002019080519060200190620009dc92919062000d1b565b5081600260003373ffffffffffffffffffffffffffffffffffffffff1673ffffffffffffffffffffffffffffffffffffffff16815260200190815260200160002060030160006101000a81548160ff021916908360ff16021790555080600260003373ffffffffffffffffffffffffffffffffffffffff1673ffffffffffffffffffffffffffffffffffffffff168152602001908152602001600020600401819055506000809054906101000a900473ffffffffffffffffffffffffffffffffffffffff1673ffffffffffffffffffffffffffffffffffffffff1663983b2d56336040518263ffffffff167c0100000000000000000000000000000000000000000000000000000000028152600401808273ffffffffffffffffffffffffffffffffffffffff1673ffffffffffffffffffffffffffffffffffffffff168152602001915050600060405180830381600087803b15801562000b3c57600080fd5b505af115801562000b51573d6000803e3d6000fd5b505050507f8e66b9f40ca8f78abddc596f8bc5a4a8e44dd0960c2b87a0eb49ab4184a0ad2f600160009054906101000a900473ffffffffffffffffffffffffffffffffffffffff163386868686604051808773ffffffffffffffffffffffffffffffffffffffff1673ffffffffffffffffffffffffffffffffffffffff1681526020018673ffffffffffffffffffffffffffffffffffffffff1673ffffffffffffffffffffffffffffffffffffffff16815260200180602001806020018560ff1660ff168152602001848152602001838103835287818151815260200191508051906020019080838360005b8381101562000c5a57808201518184015260208101905062000c3d565b50505050905090810190601f16801562000c885780820380516001836020036101000a031916815260200191505b50838103825286818151815260200191508051906020019080838360005b8381101562000cc357808201518184015260208101905062000ca6565b50505050905090810190601f16801562000cf15780820380516001836020036101000a031916815260200191505b509850505050505050505060405180910390a150505050565b60405161203f8062000dcb83390190565b828054600181600116156101000203166002900490600052602060002090601f016020900481019282601f1062000d5e57805160ff191683800117855562000d8f565b8280016001018555821562000d8f579182015b8281111562000d8e57825182559160200191906001019062000d71565b5b50905062000d9e919062000da2565b5090565b62000dc791905b8082111562000dc357600081600090555060010162000da9565b5090565b9056fe60806040523480156200001157600080fd5b506040516200203f3803806200203f833981018060405260a08110156200003757600080fd5b8101908080516401000000008111156200005057600080fd5b828101905060208101848111156200006757600080fd5b81518560018202830111640100000000821117156200008557600080fd5b50509291906020018051640100000000811115620000a257600080fd5b82810190506020810184811115620000b957600080fd5b8151856001820283011164010000000082111715620000d757600080fd5b50509291906020018051906020019092919080519060200190929190805190602001909291905050506200011a33620001bc640100000000026401000000009004565b8460049080519060200190620001329291906200037e565b5083600590805190602001906200014b9291906200037e565b5082600660006101000a81548160ff021916908360ff16021790555081600281905550816000808373ffffffffffffffffffffffffffffffffffffffff1673ffffffffffffffffffffffffffffffffffffffff1681526020019081526020016000208190555050505050506200042d565b620001e0816003620002266401000000000262001a77179091906401000000009004565b8073ffffffffffffffffffffffffffffffffffffffff167f6ae172837ea30b801fbfcdd4108aa1d5bf8ff775444fd70256b44e6bf3dfc3f660405160405180910390a250565b600073ffffffffffffffffffffffffffffffffffffffff168173ffffffffffffffffffffffffffffffffffffffff16141515156200026357600080fd5b6200027e8282620002e9640100000000026401000000009004565b1515156200028b57600080fd5b60018260000160008373ffffffffffffffffffffffffffffffffffffffff1673ffffffffffffffffffffffffffffffffffffffff16815260200190815260200160002060006101000a81548160ff0219169083151502179055505050565b60008073ffffffffffffffffffffffffffffffffffffffff168273ffffffffffffffffffffffffffffffffffffffff16141515156200032757600080fd5b8260000160008373ffffffffffffffffffffffffffffffffffffffff1673ffffffffffffffffffffffffffffffffffffffff16815260200190815260200160002060009054906101000a900460ff16905092915050565b828054600181600116156101000203166002900490600052602060002090601f016020900481019282601f10620003c157805160ff1916838001178555620003f2565b82800160010185558215620003f2579182015b82811115620003f1578251825591602001919060010190620003d4565b5b50905062000401919062000405565b5090565b6200042a91905b80821115620004265760008160009055506001016200040c565b5090565b90565b611c02806200043d6000396000f3fe6080604052600436106100fc576000357c0100000000000000000000000000000000000000000000000000000000900463ffffffff16806306fdde0314610101578063095ea7b31461019157806318160ddd1461020457806323b872dd1461022f578063313ce567146102c257806339509351146102f357806340c10f191461036657806342966c68146103d957806370a082311461041457806379cc67901461047957806395d89b41146104d4578063983b2d561461056457806398650275146105b5578063a457c2d7146105cc578063a9059cbb1461063f578063aa271e1a146106b2578063c8e769821461071b578063dd62ed3e14610772575b600080fd5b34801561010d57600080fd5b506101166107f7565b6040518080602001828103825283818151815260200191508051906020019080838360005b8381101561015657808201518184015260208101905061013b565b50505050905090810190601f1680156101835780820380516001836020036101000a031916815260200191505b509250505060405180910390f35b34801561019d57600080fd5b506101ea600480360360408110156101b457600080fd5b81019080803573ffffffffffffffffffffffffffffffffffffffff16906020019092919080359060200190929190505050610899565b604051808215151515815260200191505060405180910390f35b34801561021057600080fd5b506102196109c6565b6040518082815260200191505060405180910390f35b34801561023b57600080fd5b506102a86004803603606081101561025257600080fd5b81019080803573ffffffffffffffffffffffffffffffffffffffff169060200190929190803573ffffffffffffffffffffffffffffffffffffffff169060200190929190803590602001909291905050506109d0565b604051808215151515815260200191505060405180910390f35b3480156102ce57600080fd5b506102d7610bd8565b604051808260ff1660ff16815260200191505060405180910390f35b3480156102ff57600080fd5b5061034c6004803603604081101561031657600080fd5b81019080803573ffffffffffffffffffffffffffffffffffffffff16906020019092919080359060200190929190505050610bef565b604051808215151515815260200191505060405180910390f35b34801561037257600080fd5b506103bf6004803603604081101561038957600080fd5b81019080803573ffffffffffffffffffffffffffffffffffffffff16906020019092919080359060200190929190505050610e26565b604051808215151515815260200191505060405180910390f35b3480156103e557600080fd5b50610412600480360360208110156103fc57600080fd5b8101908080359060200190929190505050610e50565b005b34801561042057600080fd5b506104636004803603602081101561043757600080fd5b81019080803573ffffffffffffffffffffffffffffffffffffffff169060200190929190505050610e5d565b6040518082815260200191505060405180910390f35b34801561048557600080fd5b506104d26004803603604081101561049c57600080fd5b81019080803573ffffffffffffffffffffffffffffffffffffffff16906020019092919080359060200190929190505050610ea5565b005b3480156104e057600080fd5b506104e9610eb3565b6040518080602001828103825283818151815260200191508051906020019080838360005b8381101561052957808201518184015260208101905061050e565b50505050905090810190601f1680156105565780820380516001836020036101000a031916815260200191505b509250505060405180910390f35b34801561057057600080fd5b506105b36004803603602081101561058757600080fd5b81019080803573ffffffffffffffffffffffffffffffffffffffff169060200190929190505050610f55565b005b3480156105c157600080fd5b506105ca610f75565b005b3480156105d857600080fd5b50610625600480360360408110156105ef57600080fd5b81019080803573ffffffffffffffffffffffffffffffffffffffff16906020019092919080359060200190929190505050610f80565b604051808215151515815260200191505060405180910390f35b34801561064b57600080fd5b506106986004803603604081101561066257600080fd5b81019080803573ffffffffffffffffffffffffffffffffffffffff169060200190929190803590602001909291905050506111b7565b604051808215151515815260200191505060405180910390f35b3480156106be57600080fd5b50610701600480360360208110156106d557600080fd5b81019080803573ffffffffffffffffffffffffffffffffffffffff1690602001909291905050506111ce565b604051808215151515815260200191505060405180910390f35b34801561072757600080fd5b506107306111eb565b604051808273ffffffffffffffffffffffffffffffffffffffff1673ffffffffffffffffffffffffffffffffffffffff16815260200191505060405180910390f35b34801561077e57600080fd5b506107e16004803603604081101561079557600080fd5b81019080803573ffffffffffffffffffffffffffffffffffffffff169060200190929190803573ffffffffffffffffffffffffffffffffffffffff1690602001909291905050506111f3565b6040518082815260200191505060405180910390f35b606060048054600181600116156101000203166002900480601f01602080910402602001604051908101604052809291908181526020018280546001816001161561010002031660029004801561088f5780601f106108645761010080835404028352916020019161088f565b820191906000526020600020905b81548152906001019060200180831161087257829003601f168201915b5050505050905090565b60008073ffffffffffffffffffffffffffffffffffffffff168373ffffffffffffffffffffffffffffffffffffffff16141515156108d657600080fd5b81600160003373ffffffffffffffffffffffffffffffffffffffff1673ffffffffffffffffffffffffffffffffffffffff16815260200190815260200160002060008573ffffffffffffffffffffffffffffffffffffffff1673ffffffffffffffffffffffffffffffffffffffff168152602001908152602001600020819055508273ffffffffffffffffffffffffffffffffffffffff163373ffffffffffffffffffffffffffffffffffffffff167f8c5be1e5ebec7d5bd14f71427d1e84f3dd0314c0f7b2291e5b200ac8c7c3b925846040518082815260200191505060405180910390a36001905092915050565b6000600254905090565b6000610a6182600160008773ffffffffffffffffffffffffffffffffffffffff1673ffffffffffffffffffffffffffffffffffffffff16815260200190815260200160002060003373ffffffffffffffffffffffffffffffffffffffff1673ffffffffffffffffffffffffffffffffffffffff1681526020019081526020016000205461127a90919063ffffffff16565b600160008673ffffffffffffffffffffffffffffffffffffffff1673ffffffffffffffffffffffffffffffffffffffff16815260200190815260200160002060003373ffffffffffffffffffffffffffffffffffffffff1673ffffffffffffffffffffffffffffffffffffffff16815260200190815260200160002081905550610aec84848461129c565b3373ffffffffffffffffffffffffffffffffffffffff168473ffffffffffffffffffffffffffffffffffffffff167f8c5be1e5ebec7d5bd14f71427d1e84f3dd0314c0f7b2291e5b200ac8c7c3b925600160008873ffffffffffffffffffffffffffffffffffffffff1673ffffffffffffffffffffffffffffffffffffffff16815260200190815260200160002060003373ffffffffffffffffffffffffffffffffffffffff1673ffffffffffffffffffffffffffffffffffffffff168152602001908152602001600020546040518082815260200191505060405180910390a3600190509392505050565b6000600660009054906101000a900460ff16905090565b60008073ffffffffffffffffffffffffffffffffffffffff168373ffffffffffffffffffffffffffffffffffffffff1614151515610c2c57600080fd5b610cbb82600160003373ffffffffffffffffffffffffffffffffffffffff1673ffffffffffffffffffffffffffffffffffffffff16815260200190815260200160002060008673ffffffffffffffffffffffffffffffffffffffff1673ffffffffffffffffffffffffffffffffffffffff1681526020019081526020016000205461146890919063ffffffff16565b600160003373ffffffffffffffffffffffffffffffffffffffff1673ffffffffffffffffffffffffffffffffffffffff16815260200190815260200160002060008573ffffffffffffffffffffffffffffffffffffffff1673ffffffffffffffffffffffffffffffffffffffff168152602001908152602001600020819055508273ffffffffffffffffffffffffffffffffffffffff163373ffffffffffffffffffffffffffffffffffffffff167f8c5be1e5ebec7d5bd14f71427d1e84f3dd0314c0f7b2291e5b200ac8c7c3b925600160003373ffffffffffffffffffffffffffffffffffffffff1673ffffffffffffffffffffffffffffffffffffffff16815260200190815260200160002060008773ffffffffffffffffffffffffffffffffffffffff1673ffffffffffffffffffffffffffffffffffffffff168152602001908152602001600020546040518082815260200191505060405180910390a36001905092915050565b6000610e31336111ce565b1515610e3c57600080fd5b610e468383611489565b6001905092915050565b610e5a33826115dd565b50565b60008060008373ffffffffffffffffffffffffffffffffffffffff1673ffffffffffffffffffffffffffffffffffffffff168152602001908152602001600020549050919050565b610eaf8282611731565b5050565b606060058054600181600116156101000203166002900480601f016020809104026020016040519081016040528092919081815260200182805460018160011615610100020316600290048015610f4b5780601f10610f2057610100808354040283529160200191610f4b565b820191906000526020600020905b815481529060010190602001808311610f2e57829003601f168201915b5050505050905090565b610f5e336111ce565b1515610f6957600080fd5b610f728161192f565b50565b610f7e33611989565b565b60008073ffffffffffffffffffffffffffffffffffffffff168373ffffffffffffffffffffffffffffffffffffffff1614151515610fbd57600080fd5b61104c82600160003373ffffffffffffffffffffffffffffffffffffffff1673ffffffffffffffffffffffffffffffffffffffff16815260200190815260200160002060008673ffffffffffffffffffffffffffffffffffffffff1673ffffffffffffffffffffffffffffffffffffffff1681526020019081526020016000205461127a90919063ffffffff16565b600160003373ffffffffffffffffffffffffffffffffffffffff1673ffffffffffffffffffffffffffffffffffffffff16815260200190815260200160002060008573ffffffffffffffffffffffffffffffffffffffff1673ffffffffffffffffffffffffffffffffffffffff168152602001908152602001600020819055508273ffffffffffffffffffffffffffffffffffffffff163373ffffffffffffffffffffffffffffffffffffffff167f8c5be1e5ebec7d5bd14f71427d1e84f3dd0314c0f7b2291e5b200ac8c7c3b925600160003373ffffffffffffffffffffffffffffffffffffffff1673ffffffffffffffffffffffffffffffffffffffff16815260200190815260200160002060008773ffffffffffffffffffffffffffffffffffffffff1673ffffffffffffffffffffffffffffffffffffffff168152602001908152602001600020546040518082815260200191505060405180910390a36001905092915050565b60006111c433848461129c565b6001905092915050565b60006111e48260036119e390919063ffffffff16565b9050919050565b600030905090565b6000600160008473ffffffffffffffffffffffffffffffffffffffff1673ffffffffffffffffffffffffffffffffffffffff16815260200190815260200160002060008373ffffffffffffffffffffffffffffffffffffffff1673ffffffffffffffffffffffffffffffffffffffff16815260200190815260200160002054905092915050565b600082821115151561128b57600080fd5b600082840390508091505092915050565b600073ffffffffffffffffffffffffffffffffffffffff168273ffffffffffffffffffffffffffffffffffffffff16141515156112d857600080fd5b611329816000808673ffffffffffffffffffffffffffffffffffffffff1673ffffffffffffffffffffffffffffffffffffffff1681526020019081526020016000205461127a90919063ffffffff16565b6000808573ffffffffffffffffffffffffffffffffffffffff1673ffffffffffffffffffffffffffffffffffffffff168152602001908152602001600020819055506113bc816000808573ffffffffffffffffffffffffffffffffffffffff1673ffffffffffffffffffffffffffffffffffffffff1681526020019081526020016000205461146890919063ffffffff16565b6000808473ffffffffffffffffffffffffffffffffffffffff1673ffffffffffffffffffffffffffffffffffffffff168152602001908152602001600020819055508173ffffffffffffffffffffffffffffffffffffffff168373ffffffffffffffffffffffffffffffffffffffff167fddf252ad1be2c89b69c2b068fc378daa952ba7f163c4a11628f55a4df523b3ef836040518082815260200191505060405180910390a3505050565b600080828401905083811015151561147f57600080fd5b8091505092915050565b600073ffffffffffffffffffffffffffffffffffffffff168273ffffffffffffffffffffffffffffffffffffffff16141515156114c557600080fd5b6114da8160025461146890919063ffffffff16565b600281905550611531816000808573ffffffffffffffffffffffffffffffffffffffff1673ffffffffffffffffffffffffffffffffffffffff1681526020019081526020016000205461146890919063ffffffff16565b6000808473ffffffffffffffffffffffffffffffffffffffff1673ffffffffffffffffffffffffffffffffffffffff168152602001908152602001600020819055508173ffffffffffffffffffffffffffffffffffffffff16600073ffffffffffffffffffffffffffffffffffffffff167fddf252ad1be2c89b69c2b068fc378daa952ba7f163c4a11628f55a4df523b3ef836040518082815260200191505060405180910390a35050565b600073ffffffffffffffffffffffffffffffffffffffff168273ffffffffffffffffffffffffffffffffffffffff161415151561161957600080fd5b61162e8160025461127a90919063ffffffff16565b600281905550611685816000808573ffffffffffffffffffffffffffffffffffffffff1673ffffffffffffffffffffffffffffffffffffffff1681526020019081526020016000205461127a90919063ffffffff16565b6000808473ffffffffffffffffffffffffffffffffffffffff1673ffffffffffffffffffffffffffffffffffffffff16815260200190815260200160002081905550600073ffffffffffffffffffffffffffffffffffffffff168273ffffffffffffffffffffffffffffffffffffffff167fddf252ad1be2c89b69c2b068fc378daa952ba7f163c4a11628f55a4df523b3ef836040518082815260200191505060405180910390a35050565b6117c081600160008573ffffffffffffffffffffffffffffffffffffffff1673ffffffffffffffffffffffffffffffffffffffff16815260200190815260200160002060003373ffffffffffffffffffffffffffffffffffffffff1673ffffffffffffffffffffffffffffffffffffffff1681526020019081526020016000205461127a90919063ffffffff16565b600160008473ffffffffffffffffffffffffffffffffffffffff1673ffffffffffffffffffffffffffffffffffffffff16815260200190815260200160002060003373ffffffffffffffffffffffffffffffffffffffff1673ffffffffffffffffffffffffffffffffffffffff1681526020019081526020016000208190555061184a82826115dd565b3373ffffffffffffffffffffffffffffffffffffffff168273ffffffffffffffffffffffffffffffffffffffff167f8c5be1e5ebec7d5bd14f71427d1e84f3dd0314c0f7b2291e5b200ac8c7c3b925600160008673ffffffffffffffffffffffffffffffffffffffff1673ffffffffffffffffffffffffffffffffffffffff16815260200190815260200160002060003373ffffffffffffffffffffffffffffffffffffffff1673ffffffffffffffffffffffffffffffffffffffff168152602001908152602001600020546040518082815260200191505060405180910390a35050565b611943816003611a7790919063ffffffff16565b8073ffffffffffffffffffffffffffffffffffffffff167f6ae172837ea30b801fbfcdd4108aa1d5bf8ff775444fd70256b44e6bf3dfc3f660405160405180910390a250565b61199d816003611b2790919063ffffffff16565b8073ffffffffffffffffffffffffffffffffffffffff167fe94479a9f7e1952cc78f2d6baab678adc1b772d936c6583def489e524cb6669260405160405180910390a250565b60008073ffffffffffffffffffffffffffffffffffffffff168273ffffffffffffffffffffffffffffffffffffffff1614151515611a2057600080fd5b8260000160008373ffffffffffffffffffffffffffffffffffffffff1673ffffffffffffffffffffffffffffffffffffffff16815260200190815260200160002060009054906101000a900460ff16905092915050565b600073ffffffffffffffffffffffffffffffffffffffff168173ffffffffffffffffffffffffffffffffffffffff1614151515611ab357600080fd5b611abd82826119e3565b151515611ac957600080fd5b60018260000160008373ffffffffffffffffffffffffffffffffffffffff1673ffffffffffffffffffffffffffffffffffffffff16815260200190815260200160002060006101000a81548160ff0219169083151502179055505050565b600073ffffffffffffffffffffffffffffffffffffffff168173ffffffffffffffffffffffffffffffffffffffff1614151515611b6357600080fd5b611b6d82826119e3565b1515611b7857600080fd5b60008260000160008373ffffffffffffffffffffffffffffffffffffffff1673ffffffffffffffffffffffffffffffffffffffff16815260200190815260200160002060006101000a81548160ff021916908315150217905550505056fea165627a7a723058204c582811bf89d059584519ab8b05d7f4d28c2fe8cdfdf43009fc1b3b54818a340029a165627a7a723058204e88abf14468d8d72c7f3bfccb5851a4baa70f2ea1d8311ca50424bf210a8eaa0029",
  "source": "pragma solidity 0.5.0;\n\nimport \"./Token.sol\";\n\ncontract DeployToken {\n\n    Token private token;\n    address private addressThis;\n    struct userToken {\n        address addressThis;\n        string name;\n        string symbol;\n        uint8 decimals;\n        uint256 initialSupply;\n    }\n\n    mapping(address => userToken) usersToken;\n    event SendToken(address  tokenAddress, address sender, string name, string  symbol, uint8 decimals, uint256 initialSupply);\n    \n    function deployToken (string memory name, string memory symbol, uint8 decimals, uint256 initialSupply) public {\n        token = new Token(name, symbol, decimals, initialSupply, msg.sender);\n        addressThis = token.addressThis();\n        usersToken[msg.sender].addressThis = addressThis;\n        usersToken[msg.sender].name = name;\n        usersToken[msg.sender].symbol = symbol;\n        usersToken[msg.sender].decimals = decimals;\n        usersToken[msg.sender].initialSupply = initialSupply;\n        token.addMinter(msg.sender);\n        emit SendToken(addressThis, msg.sender, name, symbol, decimals, initialSupply);\n    }\n\n    function showTokenAddress () public view returns(address, string memory, string memory, uint8, uint256){\n        return (\n            usersToken[msg.sender].addressThis,\n            usersToken[msg.sender].name,\n            usersToken[msg.sender].symbol,\n            usersToken[msg.sender].decimals,\n            usersToken[msg.sender].initialSupply\n        );\n    }\n\n}",
  "sourcePath": "/Users/kaetaru/token-dapps/contracts/DeployTokens.sol",
  "compiler": {
    "name": "solc",
    "version": "0.5.0+commit.1d4f565a.Emscripten.clang"
  },
  "schemaVersion": "3.0.1",
  "updatedAt": "2019-02-15T09:46:49.514Z",
  "devdoc": {
    "methods": {}
  },
  "userdoc": {
    "methods": {}
  }
}